:100A5B0070776420636B7420627265616B657200E2
:100A6B00656E7465722070617373776F726420208A
:100A7B00202000202020202020202020202020208B
:100A8B00004C6F61643120636B74206F70656E6511
:100A9B0064004C6F61643120636B7420636C6F7303
:100AAB006564004C6F61643220636B74206F7065FA
:100ABB006E6564004C6F61643220636B7420636CF1
:100ACB006F736564007077642069732077726F6E43
:100ADB0067202000000000000034353637383536EB
:030AEB0037383960
:0E0CDE000C1E0102030405060708092A002364
:100C9000E4FDFCC3ED9FEC9E5015E4FBFA0BBB009A
:0F0CA000010AEB647C4A70F50DBD00010C80E485
:010CAF002222
:100CCE008F90C2B6D2B57F027E00120C90C2B522B2
:050CF400C2B7020CCEA6
:050CF900D2B7020CCE91
:100CB0007F02120CF47F38120CF47F01120CF47FC7
:0E0CC0000C120CF47F06120CF47F80020CF470
:100C6B008B1B8A1C891DAB1BAA1CA91D1208F660C5
:100C7B0013051DE51D7002051C14F91208F6FF1271
:050C8B000CF980E222DB
:040BF7008E2A8F2B88
:100BFB00782C7C007D007BFF7A0A79DF7E007F05F5
:100C0B001208D0E4F531E52B452A70057F30020C34
:100C1B00F9D3E52B9400E52A9400402AAE2AAF2B9A
:100C2B007C007D0A12090FED2430FFAE31053174C3
:100C3B002C2EF8A607AE2AAF2B7C007D0A12090FCB
:100C4B008E2A8F2B80CB1531C3E531648094804085
:0F0C5B000E742C2531F8E6FF120CF9153180E9E3
:010C6A002267
:070CED00A2A182A082A22255
:100B7A00D2A2D2A1D2A0C2A7C2A6C2A5C2A4120C56
:100B8A00ED40FBC2A4D2A7D2A6D2A5120CED400416
:100B9A00E4FE8031C2A5D2A7D2A6D2A4120CED409F
:100BAA00047E018020C2A6D2A7D2A5D2A4120CED3F
:100BBA0040047E02800FC2A7D2A6D2A5D2A4120CEC
:100BCA00ED40027E0320A004E4FD800C20A1047DF8
:100BDA0001800520A2027D0230A0FD30A1FA30A2D8
:0C0BEA00F7EE75F003A4241E2DF8E6FFC2
:010BF60022DC
:10096400E4F50FF51078117C00FD7BFF7A0A79E439
:10097400FE7F051208D078167C007D007BFF7A0A82
:1009840079E97E007F051208D0C2B1C2B0120CB062
:100994007BFF7A0A795B120C6B7F887E13120C90B2
:1009A4007F80120CF47BFF7A0A796B120C6B7FC088
:1009B400120CF47BFF7A0A797E120C6BE4F50EF5C7
:1009C4000D7FC0120CF4E4F9120B7AEF2430FF749B
:1009D4000829F8A6077F2A120CF909B905EAE4F9EF
:1009E400741129F8E6FF740829F8E6FEB507020534
:1009F4000D741629F8E6B50602050E09B905E17F5E
:100A040080120CF4E50D6405701A050FE50F7BFFE9
:100A140020E0067A0A798C80047A0A799D120C6B9C
:100A2400B2B08029E50E6405701A0510E5107BFF4D
:100A340020E0067A0A79AE80047A0A79BF120C6B38
:100A4400B2B180097BFF7A0A79D0120C6B7F887E61
:070A540013120C900209A42B
:03000000020AEE03
:0C0AEE00787FE4F6D8FD758131020B35ED
:10080000E709F608DFFA8046E709F208DFFA803EDA
:1008100088828C83E709F0A3DFFA8032E309F608C7
:10082000DFFA8078E309F208DFFA807088828C832F
:10083000E309F0A3DFFA806489828A83E0A3F608E3
:10084000DFFA805889828A83E0A3F208DFFA804CBD
:1008500080D280FA80C680D4806980F28033801094
:1008600080A680EA809A80A880DA80E280CA8033FD
:1008700089828A83ECFAE493A3C8C582C8CCC58375
:10088000CCF0A3C8C582C8CCC583CCDFE9DEE78045
:100890000D89828A83E493A3F608DFF9ECFAA9F0C4
:1008A000EDFB2289828A83ECFAE0A3C8C582C8CC1A
:1008B000C583CCF0A3C8C582C8CCC583CCDFEADE33
:1008C000E880DB89828A83E493A3F208DFF980CC95
:1008D00088F0EF60010E4E60C388F0ED2402B4048E
:1008E0000050B9F582EB2402B4040050AF23234535
:0608F00082239008507302
:1008F600BB010689828A83E0225002E722BBFE0200
:09090600E32289828A83E4932232
:10090F00BC000BBE0029EF8DF084FFADF022E4CCCC
:10091F00F875F008EF2FFFEE33FEEC33FCEE9DEC95
:10092F00984005FCEE9DFE0FD5F0E9E4CEFD22EDDB
:10093F00F8F5F0EE8420D21CFEADF075F008EF2F25
:10094F00FFED33FD4007985006D5F0F222C398FD16
:05095F000FD5F0EA22B3
:100AFA00020964E493A3F8E493A34003F68001F2A5
:100B0A0008DFF48029E493A3F85407240CC8C333FC
:100B1A00C4540F4420C8834004F456800146F6DFCB
:100B2A00E4800B0102040810204080900CDEE47E71
:100B3A00019360BCA3FF543F30E509541FFEE493C0
:100B4A00A360010ECF54C025E060A840B8E493A387
:100B5A00FAE493A3F8E493A3C8C582C8CAC583CAB2
:100B6A00F0A3C8C582C8CAC583CADFE9DEE780BE6A
:010CEC000007
:00000001FF
